:1000000026C063C13FC093C13DC0EEC03BC03AC0F3
:1000100039C082C137C036C035C034C033C00000DB
:10002000000037000000000036000000000038002B
:10003000020202020202020202020102040810206D
:100040002004100801020000040000000000112438
:100050001FBECFE5D2E0DEBFCDBF10E0A0E6B0E02E
:10006000E6EAF4E002C005900D92A436B107D9F794
:1000700020E0A4E6B0E001C01D92A237B207E1F78C
:1000800070D10FC2BDCF823089F018F4813051F0A9
:100090000895833019F0843009F008958CB58F7D70
:1000A0008CBD08958AB58F778ABD08958AB58F7DF6
:1000B000FBCFCF93DF93282F30E0F901EC5BFF4FAC
:1000C0008491F901E65CFF4FD491F901E05DFF4FA7
:1000D000C491CC2389F08111D6DFEC2FF0E0EE0F34
:1000E000FF1FE65DFF4FA591B4918FB7F894EC9197
:1000F000D095DE23DC938FBFDF91CF910895CF930E
:10010000DF93282F30E0F901EC5BFF4F8491F90178
:10011000E65CFF4FD491F901E05DFF4FC491CC2321
:1001200099F08111B0DFEC2FF0E0EE0FFF1FEC5DD6
:10013000FF4FA591B491EC91ED2381E090E009F49B
:1001400080E0DF91CF91089580E090E0FACFCF93E7
:10015000DF9390E0FC01E65CFF4F2491805D9F4FB0
:10016000FC0184918823D1F090E0880F991FFC0155
:10017000E25EFF4FA591B491FC01E65DFF4FC59192
:10018000D491623071F49FB7F8943C91822F80959E
:1001900083238C93E8812E2B28839FBFDF91CF91FF
:1001A00008958FB7F894EC912E2B2C938FBFF6CF38
:1001B00008951ABC82E0A3DF892B91F081E080933F
:1001C000640012BE1FBC80916700823041F48091B0
:1001D0006400813039F081E28ABD10926400089594
:1001E00082E0EDCF81E8F8CF1F920F920FB60F9209
:1001F00011242F933F938F939F93AF93BF9380913D
:100200006E0090916F00A0917000B09171003091DC
:100210006D0023E0230F2D3758F50196A11DB11D68
:1002200020936D0080936E0090936F00A0937000F8
:10023000B09371008091690090916A00A0916B0069
:10024000B0916C000196A11DB11D8093690090933F
:100250006A00A0936B00B0936C00BF91AF919F9127
:100260008F913F912F910F900FBE0F901F90189577
:1002700026E8230F0296A11DB11DD2CF1F920F9227
:100280000FB60F9211242F933F934F935F936F9369
:100290007F938F939F93AF93BF93EF93FF93E091DF
:1002A0006200F09163000995FF91EF91BF91AF91CA
:1002B0009F918F917F916F915F914F913F912F917E
:1002C0000F900FBE0F901F9018951F920F920FB6B0
:1002D0000F9211242F933F934F935F936F937F93CC
:1002E0008F939F93AF93BF93EF93FF93E091600041
:1002F000F09161000995FF91EF91BF91AF919F91AE
:100300008F917F916F915F914F913F912F910F90BE
:100310000FBE0F901F9018951F920F920FB60F925D
:1003200011241ABC0F900FBE0F901F9018951F92AA
:100330000F920FB60F9211248F939F939FB58EB596
:10034000891730F480916400813049F081E28ABDE0
:100350009F918F910F900FBE0F901F90189581E87D
:10036000F6CF78948AB582608ABD8AB581608ABDED
:1003700083B7826083BF83B7816083BF89B78260A0
:1003800089BF80B7826080BF80B7816080BF329AAA
:10039000319A309A379A8CB580648CBD62E084E0E3
:1003A000D6DE62E083E0D3DE61E080E0D0DE61E0B3
:1003B00081E0CDDE80E07DDE81E07BDE80E589BD11
:1003C00088BD81E083BF1ABC8AE080BF89E78EBD0B
:1003D0008BE78BBD1CBC80E289BF89ED90E09093D8
:1003E00061008093600085B78C7F816085BF8BB78B
:1003F00080648BBF1CE309E7C0E0D0E0FF24F394E6
:1004000082E0E82E83E07BDE6C0181E0C114D10440
:1004100009F080E08093680084E071DECD2861F40B
:10042000892BE1F580916700823069F1E0926700E5
:1004300089B78F7B89BF27C0892B81F580916700A1
:10044000811107C0F09267000EBD109266001092F5
:100450006500809167008130B1F489B7806489BFFD
:100460008091650090916600883B2BE0920784F0B4
:100470008EB581508EBD8EB58D3308F41EBD1092A1
:10048000660010926500209709F4BCCFB9DDBACFA1
:1004900001969093660080936500F5CF10926700F7
:0604A000C7CFF894FFCF66
:0404A600D800D800A2
:00000001FF
